:020000040000FA
:0400000056EF00F0C7
:100008004F82FACF49F0FBCF4AF0D9CF4BF0DACF85
:100018004CF0F2AC12EF00F014EF00F04CEF00F0EF
:100028009DA819EF00F01BEF00F030EF00F09EA83C
:1000380020EF00F022EF00F030EF00F002D82EEFB2
:1000480000F00500FA6E2150FD6E2250FE6EFF6A28
:10005800FA5012004CEF00F09DAA35EF00F037EF90
:1000680000F04CEF00F09EAA3CEF00F03EEF00F0ED
:100078004CEF00F002D84AEF00F00500FA6E1F506E
:10008800FD6E2050FE6EFF6AFA5012004CEF00F031
:100098004CC0DAFF4BC0D9FF4AC0FBFF49C0FAFF8A
:0800A8004F921100BCEF08F0BB
:1010000000535349442D4A527A634D340000010E77
:101010002624D96EDA6A000EDA22000EDF6EABA447
:1010200014EF08F016EF08F029EF08F0010E26245F
:10103000D96EDA6A000EDA22DF8202D829EF08F0D0
:101040000500FA6E1D50FD6E1E50FE6EFF6AFA50CE
:101050001200ABA22EEF08F030EF08F043EF08F0DB
:10106000010E2624D96EDA6A000EDA22DF8402D855
:1010700043EF08F00500FA6E1B50FD6E1C50FE6E2B
:10108000FF6AFA501200010E2624D96EDA6A000EA9
:10109000DA22DF50D8B44FEF08F051EF08F05FEFDD
:1010A00008F002D85DEF08F00500FA6E1950FD6EE9
:1010B0001A50FE6EFF6AFA50120061EF08F0ECEC75
:1010C00008F012009D9A0E0E4D6E100E4E6E33EC0F
:1010D00009F09D98380E4D6E110E4E6E2EEC09F0F3
:1010E000080EB86E900EAB6E240EAC6E150EAF6E81
:1010F000010EB06E9E0E4D6E120E4E6E3DEC09F05E
:101100008E0E4D6E120E4E6E38EC09F0940E4D6E32
:10111000120E4E6E42EC09F0000E236E000E296E88
:10112000000E286E080E276E000E266E000E256E2D
:10113000000E246E9D8A1200080E2760A2EF08F0B0
:10114000A4EF08F0BAEF08F0110E2824D96EDA6A7D
:10115000000EDA22DF50AD6E282A070E2864B3EFA6
:1011600008F0B5EF08F0B7EF08F0000E286E272A58
:10117000BBEF08F09D981200020EF66E120EF76E8D
:10118000000EF86E00EE2AF010EE1FF00900F5CF09
:10119000EEFFE550E150FAE100EE01F0290EEE6AB3
:1011A000E806FDE14F904F92000128EF09F0000E94
:1011B000896E000E8A6E000E8B6E92689368BF0E69
:1011C000946E3C0E0F013A6F3F0E396F2F0E386F41
:1011D000000E616EF18E1200090E2624D96EDA6AB5
:1011E000000EDA22AECFDFFF262A070E2664FBEFC1
:1011F00008F0FDEF08F0FFEF08F0000E266E242A3D
:101200001200000102030405060708090A0B0C0E70
:101210000F68683A6D6D3A7373202D20000C100131
:0112200010BD
:10122200700ED36E040ED26E400E9B6ED2AE1CEFC9
:1012320009F01EEF09F017EF09F012004DEC09F06A
:10124200D7EC08F011EC09F062EC08F012001FEC88
:1012520009F02AEF09F056EF00F04DC021F04EC020
:1012620022F012004DC01FF04EC020F012004DC0FF
:101272001BF04EC01CF012004DC01DF04EC01EF0FF
:1012820012004DC019F04EC01AF01200AB98AB8894
:0E1292001200ECEC08F01200D09E12001200C8
:020000040020DA
:08000000FFFFFFFFFFFFFFFF00
:020000040030CA
:0E000000FF281F3CFFBF85FF0FC00FE00F4021
:00000001FF
